:020000040800F2
:1000000000280020F10A000871080008770800089D
:100010007D08000883080008890800080000000027
:100020000000000000000000000000008F08000831
:100030009B08000800000000A7080008B30800089B
:10004000390B0008390B0008390B0008390B000880
:10005000390B0008390B0008390B0008390B000870
:10006000390B0008390B0008390B0008390B000860
:10007000390B0008390B0008390B0008390B000850
:10008000390B0008390B0008390B0008390B000840
:10009000390B0008390B0008390B0008390B000830
:1000A000390B0008390B0008390B0008390B000820
:1000B000C1080008390B000800000000390B0008D7
:1000C000390B00080000000000000000390B000898
:1000D00000000000390B0008390B00080000000088
:1000E000390B0008390B0008390B0008000000002C
:1000F0000000000000000000000000000000000000
:0C01000000000000000000005FF808F1A3
:10010C0010B5054C237833B9044B13B10448AFF345
:10011C0000800123237010BD70000020000000003F
:10012C00B434000808B5034B1BB103490348AFF3C3
:10013C00008008BD0000000074000020B4340008EA
:10014C0080B582B000AF7860391D4FF6FF73012285
:10015C00034802F043F87B6818460837BD4680BD5B
:10016C00E800002080B582B000AF7860054B1B68BA
:10017C001A467968044802F037FA00BF0837BD46C2
:10018C0080BD00BF90000020CC34000880B582B048
:10019C0000AF786000F072F900BF0837BD4680BD33
:1001AC0080B500AF00F0C4FC00F050F800F000F98E
:1001BC0000F088F800F0D2F81A4801F033FC00F097
:1001CC0031F901220021184800F0AEF93222022147
:1001DC00164800F0A9F90022C821154800F0A4F92E
:1001EC0000224FF49671134800F09EF9322205213B
:1001FC00114800F099F964220A21104800F094F992
:10020C0096220F210E4800F08FF9C82214210D48B8
:10021C0000F08AF9FA2219210B4800F085F900F058
:10022C002FFAFCE7A0000020210A0008390A000878
:10023C00510A0008690A0008810A0008950A00089A
:10024C00B10A0008C50A0008D90A000880B590B0A8
:10025C0000AF07F1180328220021184602F0BCF960
:10026C003B1D00221A605A609A60DA601A61022300
:10027C00BB610123BB621023FB6200237B6307F18C
:10028C001803184600F070FF0346002B01D000F055
:10029C00C3F80F237B600023BB600023FB600023AB
:1002AC003B6100237B613B1D0021184601F0DCF90A
:1002BC000346002B01D000F0AFF800BF4037BD461D
:1002CC0080BD000080B586B000AF07F108030022A6
:1002DC001A605A609A60DA603B4600221A605A60D3
:1002EC001D4B4FF080421A601B4B41F63F725A6017
:1002FC00194B00229A60184B0922DA60164B002227
:10030C001A61154B00229A61134801F03BFB03461E
:10031C00002B01D000F080F84FF48053BB6007F144
:10032C00080319460C4801F0B9FC0346002B01D018
:10033C0000F072F800233B6000237B603B461946BB
:10034C00054801F091FE0346002B01D000F064F843
:10035C0000BF1837BD4680BDA000002080B500AF9F
:10036C00114B124A1A60104B4FF4E1325A600E4B8B
:10037C0000229A600C4B0022DA600B4B00221A61AF
:10038C00094B0C225A61084B00229A61064B002241
:10039C00DA61054801F0D2FE0346002B01D000F0D3
:1003AC003BF800BF80BD00BFE800002000440040C7
:1003BC0080B586B000AF07F1080300221A605A60BE
:1003CC009A60DA60124B9B69114A43F00403936103
:1003DC000F4B9B6903F004037B607B68002241F6A2
:1003EC00F0710C4800F08EFE41F6F073BB600123F7
:1003FC00FB6000233B6102237B6107F10803194674
:10040C00044800F005FD00BF1837BD4680BD00BF95
:10041C00001002400008014080B400AF72B600BF6B
:10042C00FEE7000080B582B000AF104B00221A60CE
:10043C000F4B00221A600F4B00221A6000237B60C6
:10044C000CE010227B6802FA03F39BB201221946DE
:10045C00094800F057FE7B6801337B607B68082BF2
:10046C00EFDD00BF00BF0837BD4680BD1003002084
:10047C00140300208C0000200008014080B483B0DD
:10048C0000AF274B1B680A33254A1360254B1B68AA
:10049C007B6000233B603AE07B685B68012B0AD9E8
:1004AC007B685B685A1E7B685A607B683B607B6824
:1004BC005B697B602BE07B681B7B0133DAB27B686A
:1004CC001A737B689B68002B09D07B689A687B68E1
:1004DC005A607B683B607B685B697B6017E03B68BC
:1004EC00002B04D17B685B690E4A136003E07B68C8
:1004FC005A693B685A617B6800225A613B68002B41
:10050C0002D03B685B6901E0064B1B687B607B6833
:10051C00002BC1D100BF00BF0C37BD4680BC70475B
:10052C00900000208C00002080B485B000AFF860F3
:10053C00B9607A60304B1B68132B04D92F4B6522A2
:10054C001A60142353E02C4B1A682D4913465B0098
:10055C001344DB000B44FA681A60274B1A682849CD
:10056C0013465B001344DB000B440433BA681A6077
:10057C00214B1A68224913465B001344DB000B44E1
:10058C0008337A681A601C4B1A681D4913465B00C5
:10059C001344DB000B440C3300221A70164B1A6800
:1005AC00154B1968164813465B001344DB000344D3
:1005BC0010331960104B1A68124B19681048134607
:1005CC005B001344DB000344143319600A4B1A68B4
:1005DC0013465B001344DB00094A1344094A1360B9
:1005EC00054B1B680133044A1360034B1B68184608
:1005FC001437BD4680BC7047140300201003002044
:10060C00300100208C00002080B485B000AF7860F1
:10061C007B68002B2CD0194B1B687A689A420AD144
:10062C007B685B69154A13607B6800225A617B68A2
:10063C0000221A601DE0114B1B68FB6002E0FB6896
:10064C005B69FB60FB68002B04D0FB685B697A6814
:10065C009A42F4D1FB68002B0BD07B685A69FB687B
:10066C005A617B6800225A617B6800221A6000E0A4
:10067C0000BF1437BD4680BC704700BF8C00002003
:10068C0080B582B000AF00237B6040E024497A68DB
:10069C0013465B001344DB000B440C331B78002B1C
:1006AC0032D01F497A6813465B001344DB000B44BD
:1006BC001B6898471A497A6813465B001344DB00A1
:1006CC000B440C331B78013BD8B215497A6813469E
:1006DC005B001344DB000B440C3302461A701049C8
:1006EC007A6813465B001344DB000B4408331B6829
:1006FC00002B09D17A6813465B001344DB00084ACF
:10070C0013441846FFF780FF7B6801337B607B68DE
:10071C00132BBBD900BF00BF0837BD4680BD00BF3F
:10072C003001002080B485B000AF154B9B69144A92
:10073C0043F001039361124B9B6903F00103BB600F
:10074C00BB680F4BDB690E4A43F08053D3610C4BF3
:10075C00DB6903F080537B607B680A4B5B68FB6052
:10076C00FB6823F0E063FB60FB6843F08063FB6095
:10077C00044AFB68536000BF1437BD4680BC704709
:10078C00001002400000014080B584B000AF7860DA
:10079C007B681B68B3F1804F13D10C4BDB690B4AA0
:1007AC0043F00103D361094BDB6903F00103FB60E8
:1007BC00FB68002200211C2000F0F3FA1C2000F042
:1007CC000CFB00BF1037BD4680BD00BF00100240BF
:1007DC0080B588B000AF786007F1100300221A6072
:1007EC005A609A60DA607B681B681B4A93422FD16F
:1007FC001A4BDB69194A43F40033D361174BDB699D
:10080C0003F40033FB60FB68144B9B69134A43F001
:10081C0004039361114B9B6903F00403BB60BB6839
:10082C0004233B6102237B610323FB6107F110036B
:10083C0019460B4800F0ECFA08233B6100237B615E
:10084C000023BB6107F110031946054800F0E0FADC
:10085C0000BF2037BD4680BD004400400010024060
:10086C000008014080B400AFFEE780B400AFFEE7A3
:10087C0080B400AFFEE780B400AFFEE780B400AFF9
:10088C00FEE780B400AF00BFBD4680BC704780B4AB
:10089C0000AF00BFBD4680BC704780B400AF00BF46
:1008AC00BD4680BC704780B500AF00F087F900BF33
:1008BC0080BD000080B500AF024801F0FFF800BF1A
:1008CC0080BD00BFA000002080B586B000AFF860EE
:1008DC00B9607A6000237B610AE0AFF300800146C7
:1008EC00BB685A1CBA60CAB21A707B6901337B614F
:1008FC007A697B689A42F0DB7B6818461837BD46EC
:10090C0080BD80B586B000AFF860B9607A60002316
:10091C007B6109E0BB685A1CBA601B781846FFF76C
:10092C000FFC7B6901337B617A697B689A42F1DB4E
:10093C007B6818461837BD4680BD80B483B000AFC5
:10094C0078604FF0FF3318460C37BD4680BC7047BB
:10095C0080B483B000AF786039603B684FF40052CC
:10096C005A60002318460C37BD4680BC704780B4D3
:10097C0083B000AF7860012318460C37BD4680BCAD
:10098C00704780B485B000AFF860B9607A6000231E
:10099C0018461437BD4680BC7047000080B586B041
:1009AC0000AF7860144A154BD31A7B617B693B61AD
:1009BC00134B1B68002B02D1114B124A1A60104BBF
:1009CC001A687B6813443A699A4207D201F0DAFD3F
:1009DC0003460C221A604FF0FF3309E0084B1B68EA
:1009EC00FB60074B1A687B681344054A1360FB686D
:1009FC0018461837BD4680BD0028002000040000B2
:100A0C00940000203003002080B400AF00BFBD462E
:100A1C0080BC704780B500AF4FF40071024800F005
:100A2C0089FB00BF80BD00BF0008014080B500AF4E
:100A3C004FF48061024800F07DFB00BF80BD00BF19
:100A4C000008014080B500AF4FF40061024800F08F
:100A5C0071FB00BF80BD00BF0008014080B500AF36
:100A6C004FF48051024800F065FB00BF80BD00BF11
:100A7C000008014080B500AF1021024800F05AFB7D
:100A8C0000BF80BD0008014080B500AF0220FFF719
:100A9C0069FB2021024800F04DFB00BF80BD00BF68
:100AAC000008014080B500AF4021024800F042FB35
:100ABC0000BF80BD0008014080B500AF8021024816
:100ACC0000F038FB00BF80BD0008014080B500AFCE
:100ADC004FF48071024800F02DFB00BF80BD00BFB9
:100AEC0000080140FFF790FF0B480C490C4A00230B
:100AFC0002E0D458C4500433C4188C42F9D3094AC8
:100B0C00094C002301E013600432A242FBD301F034
:100B1C003FFDFFF745FB70470000002070000020F0
:100B2C00B0350008700000202C030020FEE7000008
:100B3C0080B500AF084B1B68074A43F010031360E5
:100B4C00032000F023F90F2000F008F8FFF7EAFD6E
:100B5C000023184680BD00BF0020024080B582B043
:100B6C0000AF7860124B1A68124B1B7819464FF481
:100B7C007A73B3FBF1F3B2FBF3F3184600F03BF9D5
:100B8C000346002B01D001230EE07B680F2B0AD803
:100B9C00002279684FF0FF3000F003F9064A7B68B9
:100BAC001360002300E0012318460837BD4680BDC2
:100BBC0000000020080000200400002080B400AFDA
:100BCC00054B1B781A46054B1B681344034A1360EC
:100BDC0000BFBD4680BC70470800002018030020F1
:100BEC0080B400AF024B1B681846BD4680BC7047F2
:100BFC001803002080B485B000AF78607B6803F0E8
:100C0C000703FB600C4BDB68BB60BA684FF6FF0355
:100C1C001340BB60FB681A02BB68134343F0BF630D
:100C2C0043F40033BB60044ABB68D36000BF143785
:100C3C00BD4680BC704700BF00ED00E080B400AF43
:100C4C00044BDB681B0A03F007031846BD4680BC47
:100C5C00704700BF00ED00E080B483B000AF0346E6
:100C6C00FB7197F90730002B0BDBFB7903F01F02AC
:100C7C00064997F907305B09012000FA02F241F8A6
:100C8C00232000BF0C37BD4680BC704700E100E05C
:100C9C0080B483B000AF03463960FB7197F907301D
:100CAC00002B0ADB3B68DAB20C4997F907301201CA
:100CBC00D2B20B4483F800230AE03B68DAB208494D
:100CCC00FB7903F00F03043B1201D2B20B441A76EA
:100CDC0000BF0C37BD4680BC704700BF00E100E090
:100CEC0000ED00E080B489B000AFF860B9607A60C4
:100CFC00FB6803F00703FB61FB69C3F10703042BDB
:100D0C0028BF0423BB61FB690433062B02D9FB69A2
:100D1C00033B00E000237B614FF0FF32BB6902FA1A
:100D2C0003F3DA43BB681A407B699A404FF0FF31FA
:100D3C007B6901FA03F3D9437B680B4013431846D4
:100D4C002437BD4680BC704780B582B000AF786058
:100D5C007B68013BB3F1807F01D301230FE00A4A8A
:100D6C007B68013B53600F214FF0FF30FFF790FF82
:100D7C00054B00229A60044B07221A600023184688
:100D8C000837BD4680BD00BF10E000E080B582B0E2
:100D9C0000AF78607868FFF72DFF00BF0837BD46BD
:100DAC0080BD80B586B000AF0346B9607A60FB7336
:100DBC0000237B61FFF742FF78617A68B968786934
:100DCC00FFF790FF024697F90F3011461846FFF7D0
:100DDC005FFF00BF1837BD4680BD80B582B000AF45
:100DEC000346FB7197F907301846FFF735FF00BF34
:100DFC000837BD4680BD80B582B000AF786078689A
:100E0C00FFF7A2FF034618460837BD4680BD000019
:100E1C0080B48BB000AF7860396000237B62002314
:100E2C003B6248E101227B6A02FA03F3FB613B68F7
:100E3C001B68FA691340BB61BA69FB699A4240F0BE
:100E4C0037813B685B68A34A93425ED0A14A9342C8
:100E5C0075D8A14A934258D09F4A93426FD89F4A63
:100E6C00934252D09D4A934269D89D4A93424CD0AA
:100E7C009B4A934263D89B4A934246D0994A9342E9
:100E8C005DD8122B2AD8122B59D801A252F823F074
:100E9C00170F0008F10E0008030F0008450F00089B
:100EAC004B0F00084B0F00084B0F00084B0F0008AE
:100EBC004B0F00084B0F00084B0F00084B0F00089E
:100ECC004B0F00084B0F00084B0F00084B0F00088E
:100EDC004B0F0008F90E00080D0F0008824A9342D0
:100EEC0013D02CE03B68DB683B6229E03B68DB6895
:100EFC0004333B6224E03B68DB6808333B621FE051
:100F0C003B68DB680C333B621AE03B689B68002B48
:100F1C0002D104233B6213E03B689B68012B05D193
:100F2C0008233B627B68FA691A6109E008233B627B
:100F3C007B68FA695A6103E000233B6200E000BF62
:100F4C00BB69FF2B01D87B6801E07B6804337B61B4
:100F5C00BB69FF2B02D87B6A9B0002E07B6A083BD3
:100F6C009B003B617B691A680F213B6901FA03F313
:100F7C00DB431A40396A3B6901FA03F31A437B6974
:100F8C001A603B685B6803F08053002B00F0908084
:100F9C00564B9B69554A43F001039361534B9B6934
:100FAC0003F00103BB60BB68514A7B6A9B080233A8
:100FBC0052F82330FB607B6A03F003039B000F2283
:100FCC0002FA03F3DB43FA681340FB607B68494A7F
:100FDC0093420DD07B68484A934207D07B68474ABE
:100FEC00934201D1022304E0032302E0012300E039
:100FFC0000237A6A02F0030292009340FA681343CA
:10100C00FB603B497B6A9B080233FA6841F823205A
:10101C003B685B6803F48013002B06D0384B9A684E
:10102C003749BB6913438B6006E0354B9A68BB6943
:10103C00DB43334913408B603B685B6803F400135C
:10104C00002B06D02E4BDA682D49BB691343CB60BD
:10105C0006E02B4BDA68BB69DB4329491340CB60B4
:10106C003B685B6803F40033002B06D0244B5A68B2
:10107C002349BB6913434B6006E0214B5A68BB699B
:10108C00DB431F4913404B603B685B6803F48033C0
:10109C00002B06D01A4B1A681949BB6913430B6015
:1010AC0006E0174B1A68BB69DB43154913400B600C
:1010BC007B6A01337B623B681A687B6A22FA03F312
:1010CC00002B7FF4AFAE00BF00BF2C37BD4680BCF9
:1010DC00704700BF000032100000311000002210D9
:1010EC00000021100000121000001110001002402E
:1010FC000000014000080140000C014000100140BC
:10110C000004014080B483B000AF78600B467B8054
:10111C0013467B707B78002B03D07A887B681A612E
:10112C0003E07B881A047B681A6100BF0C37BD464C
:10113C0080BC704780B485B000AF78600B467B8074
:10114C007B68DB68FB607A88FB6813401A04FB68D9
:10115C00D9437B880B401A437B681A6100BF143754
:10116C00BD4680BC7047000080B586B000AF78608B
:10117C007B68002B01D101236CE27B681B6803F0B8
:10118C000103002B00F08780924B5B6803F00C038B
:10119C00042B0CD08F4B5B6803F00C03082B12D183
:1011AC008C4B5B6803F48033B3F5803F0BD1894BD8
:1011BC001B6803F40033002B6CD07B685B68002B3E
:1011CC0068D1012346E27B685B68B3F5803F06D1AA
:1011DC00804B1B687F4A43F4803313602EE07B689E
:1011EC005B68002B0CD17B4B1B687A4A23F4803351
:1011FC001360784B1B68774A23F4802313601DE03F
:10120C007B685B68B3F5A02F0CD1724B1B68714ADD
:10121C0043F4802313606F4B1B686E4A43F4803396
:10122C0013600BE06B4B1B686A4A23F4803313602A
:10123C00684B1B68674A23F4802313607B685B68E8
:10124C00002B13D0FFF7CCFC386108E0FFF7C8FC8B
:10125C0002463B69D31A642B01D90323FAE15D4B97
:10126C001B6803F40033002BF0D014E0FFF7B8FC3C
:10127C00386108E0FFF7B4FC02463B69D31A642BD3
:10128C0001D90323E6E1534B1B6803F40033002B15
:10129C00F0D100E000BF7B681B6803F00203002B59
:1012AC0063D04C4B5B6803F00C03002B0BD0494B09
:1012BC005B6803F00C03082B1CD1464B5B6803F4F2
:1012CC008033002B16D1434B1B6803F00203002B19
:1012DC0005D07B681B69012B01D00123BAE13D4B82
:1012EC001B6823F0F8027B685B69DB003949134308
:1012FC000B603AE07B681B69002B20D0364B012237
:10130C001A60FFF76DFC386108E0FFF769FC0246D4
:10131C003B69D31A022B01D903239BE12D4B1B688C
:10132C0003F00203002BF0D02A4B1B6823F0F802C9
:10133C007B685B69DB00274913430B6015E0264B88
:10134C0000221A60FFF74CFC386108E0FFF748FCFC
:10135C0002463B69D31A022B01D903237AE11D4BB8
:10136C001B6803F00203002BF0D17B681B6803F0B1
:10137C000803002B3AD07B689B69002B19D0174BC4
:10138C0001221A60FFF72CFC386108E0FFF728FCFB
:10139C0002463B69D31A022B01D903235AE10D4BA8
:1013AC005B6A03F00203002BF0D0012000F0CCFAB2
:1013BC001CE00A4B00221A60FFF712FC38610FE0A8
:1013CC00FFF70EFC02463B69D31A022B08D9032304
:1013DC0040E100BF00100240000042428004424243
:1013EC009E4B5B6A03F00203002BE9D17B681B6800
:1013FC0003F00403002B00F0A6800023FB75974B31
:10140C00DB6903F08053002B0DD1944BDB69934ABD
:10141C0043F08053D361914BDB6903F08053BB6085
:10142C00BB680123FB758E4B1B6803F48073002B88
:10143C0018D18B4B1B688A4A43F480731360FFF7F7
:10144C00CFFB386108E0FFF7CBFB02463B69D31AB0
:10145C00642B01D90323FDE0814B1B6803F48073DB
:10146C00002BF0D07B68DB68012B06D17B4B1B6A11
:10147C007A4A43F0010313622DE07B68DB68002B92
:10148C000CD1764B1B6A754A23F001031362734B24
:10149C001B6A724A23F0040313621CE07B68DB684E
:1014AC00052B0CD16D4B1B6A6C4A43F00403136281
:1014BC006A4B1B6A694A43F0010313620BE0674BEA
:1014CC001B6A664A23F001031362644B1B6A634A6E
:1014DC0023F0040313627B68DB68002B15D0FFF745
:1014EC007FFB38610AE0FFF77BFB02463B69D31AAE
:1014FC0041F28832934201D90323ABE0574B1B6A6C
:10150C0003F00203002BEED014E0FFF769FB386107
:10151C000AE0FFF765FB02463B69D31A41F28832B9
:10152C00934201D9032395E04C4B1B6A03F0020351
:10153C00002BEED1FB7D012B05D1484BDB69474AD3
:10154C0023F08053D3617B68DB69002B00F0818032
:10155C00424B5B6803F00C03082B61D07B68DB69A2
:10156C00022B46D13F4B00221A60FFF739FB386142
:10157C0008E0FFF735FB02463B69D31A022B01D971
:10158C00032367E0354B1B6803F00073002BF0D18D
:10159C007B681B6AB3F5803F08D1304B5B6823F442
:1015AC0000327B689B682D4913434B602B4B5B6867
:1015BC0023F474127B68196A7B685B6A0B432749B6
:1015CC0013434B60274B01221A60FFF709FB38616C
:1015DC0008E0FFF705FB02463B69D31A022B01D941
:1015EC00032337E01D4B1B6803F00073002BF0D076
:1015FC002FE01C4B00221A60FFF7F2FA386108E06A
:10160C00FFF7EEFA02463B69D31A022B01D90323EA
:10161C0020E0124B1B6803F00073002BF0D118E094
:10162C007B68DB69012B01D1012313E00B4B5B6859
:10163C00FB60FB6803F480327B681B6A9A4206D11C
:10164C00FB6803F470127B685B6A9A4201D0012339
:10165C0000E0002318461837BD4680BD001002403C
:10166C00007000406000424280B584B000AF7860EA
:10167C0039607B68002B01D10123D0E06A4B1B68D9
:10168C0003F007033A689A4210D9674B1B6823F0A2
:10169C00070265493B6813430B60634B1B6803F0FF
:1016AC0007033A689A4201D00123B8E07B681B68B3
:1016BC0003F00203002B20D07B681B6803F00403AB
:1016CC00002B05D0594B5B68584A43F4E0635360D8
:1016DC007B681B6803F00803002B05D0534B5B6839
:1016EC00524A43F460535360504B5B6823F0F00252
:1016FC007B689B684D4913434B607B681B6803F008
:10170C000103002B40D07B685B68012B07D1474B52
:10171C001B6803F40033002B15D101237FE07B6899
:10172C005B68022B07D1414B1B6803F00073002B45
:10173C0009D1012373E03D4B1B6803F00203002B1E
:10174C0001D101236BE0394B5B6823F003027B680A
:10175C005B68364913434B60FFF742FAF8600AE0C6
:10176C00FFF73EFA0246FB68D31A41F288329342E5
:10177C0001D9032353E02D4B5B6803F00C027B680B
:10178C005B689B009A42EBD1274B1B6803F0070365
:10179C003A689A4210D2244B1B6823F00702224964
:1017AC003B6813430B60204B1B6803F007033A683C
:1017BC009A4201D0012332E07B681B6803F00403DA
:1017CC00002B08D0194B5B6823F4E0627B68DB6864
:1017DC00164913434B607B681B6803F00803002B0E
:1017EC0009D0124B5B6823F460527B681B69DB00E9
:1017FC000E4913434B6000F021F802460B4B5B681B
:10180C001B0903F00F030A49CB5C22FA03F3094AC4
:10181C001360094B1B681846FFF7A0F90023184604
:10182C001037BD4680BD00BF0020024000100240B2
:10183C00E4340008000000200400002080B487B0CD
:10184C0000AF0023FB600023BB6000237B610023FF
:10185C007B6000233B611E4B5B68FB60FB6803F005
:10186C000C03042B02D0082B03D027E0194B3B614F
:10187C0027E0FB689B0C03F00F03174AD35C7B60DB
:10188C00FB6803F48033002B10D0114B5B685B0CAE
:10189C0003F00103114AD35CBB607B680D4A02FB69
:1018AC0003F2BB68B2FBF3F37B6104E07B680C4A88
:1018BC0002FB03F37B617B693B6102E0054B3B61FF
:1018CC0000BF3B6918461C37BD4680BC704700BF43
:1018DC000010024000127A00FC3400080C3500089D
:1018EC0000093D0080B400AF024B1B681846BD4692
:1018FC0080BC70470000002080B500AFFFF7F2FFFE
:10190C000246054B5B681B0A03F007030349CB5CDB
:10191C0022FA03F3184680BD00100240F43400088C
:10192C0080B500AFFFF7DEFF0246054B5B68DB0AB4
:10193C0003F007030349CB5C22FA03F3184680BD7E
:10194C0000100240F434000880B485B000AF786019
:10195C000A4B1B680A4AA2FB03235B0A7A6802FB48
:10196C0003F3FB6000BFFB685A1EFA60002BF9D131
:10197C0000BF00BF1437BD4680BC7047000000207C
:10198C00D34D621080B582B000AF78607B68002BBD
:10199C0001D1012341E07B6893F83D30DBB2002B91
:1019AC0006D17B68002283F83C207868FEF7ECFEB9
:1019BC007B68022283F83D207B681A687B680433BD
:1019CC001946104600F056FA7B68012283F846202F
:1019DC007B68012283F83E207B68012283F83F203C
:1019EC007B68012283F840207B68012283F8412028
:1019FC007B68012283F842207B68012283F8432014
:101A0C007B68012283F844207B68012283F84520FF
:101A1C007B68012283F83D20002318460837BD4619
:101A2C0080BD000080B485B000AF78607B6893F80F
:101A3C003D30DBB2012B01D0012335E07B68022263
:101A4C0083F83D207B681B68DA687B681B6842F072
:101A5C000102DA607B681B68164A934209D07B68E6
:101A6C001B68B3F1804F04D07B681B68124A934209
:101A7C0011D17B681B689B6803F00703FB60FB6854
:101A8C00062B10D07B681B681A687B681B6842F0B9
:101A9C0001021A6007E07B681B681A687B681B6888
:101AAC0042F001021A60002318461437BD4680BC70
:101ABC00704700BF002C01400004004080B584B08A
:101ACC0000AF78607B681B68DB68FB607B681B6819
:101ADC001B69BB60BB6803F00203002B20D0FB68C2
:101AEC0003F00203002B1BD07B681B686FF0020213
:101AFC001A617B6801221A777B681B689B6903F06B
:101B0C000303002B03D0786800F098F905E078689F
:101B1C0000F08BF9786800F09AF97B6800221A774C
:101B2C00BB6803F00403002B20D0FB6803F0040314
:101B3C00002B1BD07B681B686FF004021A617B685A
:101B4C0002221A777B681B689B6903F44073002B95
:101B5C0003D0786800F072F905E0786800F065F958
:101B6C00786800F074F97B6800221A77BB6803F080
:101B7C000803002B20D0FB6803F00803002B1BD0BC
:101B8C007B681B686FF008021A617B6804221A7765
:101B9C007B681B68DB6903F00303002B03D07868B8
:101BAC0000F04CF905E0786800F03FF9786800F037
:101BBC004EF97B6800221A77BB6803F01003002BE8
:101BCC0020D0FB6803F01003002B1BD07B681B6834
:101BDC006FF010021A617B6808221A777B681B6809
:101BEC00DB6903F44073002B03D0786800F026F90E
:101BFC0005E0786800F019F9786800F028F97B683E
:101C0C0000221A77BB6803F00103002B0CD0FB6891
:101C1C0003F00103002B07D07B681B686FF00102F7
:101C2C001A617868FEF7B2FABB6803F08003002BE8
:101C3C000CD0FB6803F08003002B07D07B681B687B
:101C4C006FF080021A61786800F06FFABB6803F0DD
:101C5C004003002B0CD0FB6803F04003002B07D093
:101C6C007B681B686FF040021A61786800F0F8F826
:101C7C00BB6803F02003002B0CD0FB6803F020039F
:101C8C00002B07D07B681B686FF020021A61786804
:101C9C0000F042FA00BF1037BD4680BD80B584B05D
:101CAC0000AF786039600023FB737B6893F83C309D
:101CBC00012B01D10223B4E07B68012283F83C2084
:101CCC007B68022283F83D207B681B689B68BB60A5
:101CDC00BB6823F07703BB60BB6823F47F43BB6016
:101CEC007B681B68BA689A603B681B68B3F5005F39
:101CFC003ED0B3F5005F00F28780B3F5805F00F053
:101D0C008680B3F5805F7FD8702B1AD0702B7BD870
:101D1C00602B50D0602B77D8502B3CD0502B73D8E5
:101D2C00402B58D0402B6FD8302B64D0302B6BD835
:101D3C00202B60D0202B67D8002B5CD0102B5AD0D6
:101D4C0062E07B6818683B6899683B685A683B6836
:101D5C00DB6800F06AF97B681B689B68BB60BB683A
:101D6C0043F07703BB607B681B68BA689A604FE0EE
:101D7C007B6818683B6899683B685A683B68DB6805
:101D8C0000F053F97B681B689A687B681B6842F407
:101D9C0080429A603CE07B6818683B6859683B68F5
:101DAC00DB681A4600F0CAF87B681B68502118469D
:101DBC0000F021F92CE07B6818683B6859683B6897
:101DCC00DB681A4600F0E8F87B681B68602118464F
:101DDC0000F011F91CE07B6818683B6859683B6897
:101DEC00DB681A4600F0AAF87B681B68402118468D
:101DFC0000F001F90CE07B681A683B681B68194617
:101E0C00104600F0F8F803E00123FB7300E000BF7C
:101E1C007B68012283F83D207B68002283F83C20FC
:101E2C00FB7B18461037BD4680BD80B483B000AF35
:101E3C00786000BF0C37BD4680BC704780B483B05F
:101E4C0000AF786000BF0C37BD4680BC704780B4D3
:101E5C0083B000AF786000BF0C37BD4680BC7047C4
:101E6C0080B483B000AF786000BF0C37BD4680BC37
:101E7C007047000080B485B000AF786039607B6833
:101E8C001B68FB607B682B4A934207D07B68B3F1DD
:101E9C00804F03D07B68284A934208D1FB6823F01B
:101EAC007003FB603B685B68FA681343FB607B68FC
:101EBC00204A934207D07B68B3F1804F03D07B68F4
:101ECC001D4A934208D1FB6823F44073FB603B68C6
:101EDC00DB68FA681343FB60FB6823F080023B6805
:101EEC005B691343FB607B68FA681A603B689A680D
:101EFC007B68DA623B681A687B689A627B680D4A79
:101F0C00934203D13B681A697B681A637B68012290
:101F1C005A617B681B6903F00103002B05D07B68B9
:101F2C001B6923F001027B681A6100BF1437BD46A0
:101F3C0080BC7047002C01400004004080B487B086
:101F4C0000AFF860B9607A60FB681B6A7B61FB6864
:101F5C001B6A23F00102FB681A62FB689B693B61F8
:101F6C003B6923F0F0033B617B681B013A69134327
:101F7C003B617B6923F00A037B617A69BB6813437D
:101F8C007B61FB683A699A61FB687A691A6200BFE7
:101F9C001C37BD4680BC704780B487B000AFF8607A
:101FAC00B9607A60FB681B6A7B61FB681B6A23F073
:101FBC001002FB681A62FB689B693B613B6923F466
:101FCC0070433B617B681B033A6913433B617B693C
:101FDC0023F0A0037B61BB681B017A6913437B610F
:101FEC00FB683A699A61FB687A691A6200BF1C3710
:101FFC00BD4680BC704780B485B000AF7860396056
:10200C007B689B68FB60FB6823F07003FB603A689D
:10201C00FB68134343F00703FB607B68FA689A6024
:10202C0000BF1437BD4680BC704780B487B000AF8A
:10203C00F860B9607A603B60FB689B687B617B6988
:10204C0023F47F437B613B681A027B681A43BB68AD
:10205C0013437A6913437B61FB687A699A6000BF0A
:10206C001C37BD4680BC704780B485B000AF78602B
:10207C0039607B6893F83C30012B01D1022341E09D
:10208C007B68012283F83C207B68022283F83D2088
:10209C007B681B685B68FB607B681B689B68BB602C
:1020AC00FB6823F07003FB603B681B68FA68134302
:1020BC00FB607B681B68FA685A607B681B68144A73
:1020CC00934209D07B681B68B3F1804F04D07B68C6
:1020DC001B68104A93420CD1BB6823F08003BB6091
:1020EC003B685B68BA681343BB607B681B68BA6863
:1020FC009A607B68012283F83D207B68002283F87C
:10210C003C20002318461437BD4680BC704700BFE6
:10211C00002C01400004004080B483B000AF786014
:10212C0000BF0C37BD4680BC704780B483B000AF95
:10213C00786000BF0C37BD4680BC704780B582B05C
:10214C0000AF78607B68002B01D1012342E07B68F3
:10215C0093F84130DBB2002B06D17B68002283F868
:10216C0040207868FEF734FB7B68242283F84120FA
:10217C007B681B68DA687B681B6822F40052DA60A3
:10218C00786800F071F97B681B681A697B681B68BA
:10219C0022F490421A617B681B685A697B681B6841
:1021AC0022F02A025A617B681B68DA687B681B681C
:1021BC0042F40052DA607B6800225A647B68202269
:1021CC0083F841207B68202283F842207B68002220
:1021DC005A63002318460837BD4680BD80B58AB0C7
:1021EC0002AFF860B9603B601346FB8000237B6153
:1021FC00FB6893F84130DBB2202B75D1BB68002B08
:10220C0002D0FB88002B01D101236EE0FB68002279
:10221C005A64FB68212283F84120FEF7E1FC7861C7
:10222C00FB68FA889A84FB68FA88DA84FB689B68F6
:10223C00B3F5805F08D1FB681B69002B04D1002328
:10224C00FB61BB68BB6103E0BB68FB610023BB6146
:10225C002EE03B6800937B6900228021F86800F037
:10226C0048F80346002B05D0FB68202283F8412058
:10227C0003233AE0FB69002B0BD1BB691B881A4680
:10228C00FB681B68C2F308025A60BB690233BB616E
:10229C0007E0FB691A78FB681B685A60FB6901331D
:1022AC00FB61FB68DB8C9BB2013B9AB2FB68DA8466
:1022BC00FB68DB8C9BB2002BCBD13B6800937B691A
:1022CC0000224021F86800F014F80346002B05D0DA
:1022DC00FB68202283F84120032306E0FB682022C0
:1022EC0083F84120002300E0022318462037BD4626
:1022FC0080BD80B586B000AFF860B9603B60134616
:10230C00FB713BE03B6AB3F1FF3F37D0FEF768FC53
:10231C0002463B68D31A3A6A9A4202D33B6A002BB4
:10232C0001D103233AE0FB681B68DB6803F004036C
:10233C00002B23D0BB68802B20D0BB68402B1DD03A
:10234C00FB681B681B6803F00803082B16D10023DD
:10235C007B61FB681B681B687B61FB681B685B68A7
:10236C007B617B69F86800F01DF8FB6808225A64F1
:10237C00FB68002283F8402001230FE0FB681B68F8
:10238C001A68BB681340BA689A420CBF0123002339
:10239C00DBB21A46FB799A42B4D0002318461837A0
:1023AC00BD4680BD80B495B000AF78607B681B687B
:1023BC000C337B637B6B53E8003F3B633B6B23F439
:1023CC009073FB647B681B680C33FA6C3A64FB6398
:1023DC00F96B3A6C41E80023BB63BB6B002BE5D176
:1023EC007B681B6814333B623B6A53E8003FFB611C
:1023FC00FB6923F00103BB647B681B681433BA6C64
:10240C00FA62BB62B96AFA6A41E800237B627B6AB2
:10241C00002BE5D17B681B6B012B19D17B681B68EA
:10242C000C33FB60FB6853E8003FBB60BB6823F0D8
:10243C0010037B647B681B680C337A6CBA617B611C
:10244C007969BA6941E800233B613B69002BE5D10E
:10245C007B68202283F842207B6800221A6300BF2D
:10246C005437BD4680BC704780B584B000AF7860EF
:10247C007B681B681B6923F440517B68DA687B68B6
:10248C001B680A431A617B689A687B681B691A434C
:10249C007B685B691343BB607B681B68DB6823F458
:1024AC00B05323F00C037A681268B9680B43D360FD
:1024BC007B681B685B6923F440717B689A697B6855
:1024CC001B680A435A617B681B682C4A934203D1F0
:1024DC00FFF726FAF86002E0FFF70EFAF860FA68E8
:1024EC0013469B0013449A001A447B685B689B005C
:1024FC00B2FBF3F3224AA2FB03235B091901FA682E
:10250C0013469B0013449A001A447B685B689B003B
:10251C00B2FBF3F21A4BA3FB02035B09642000FB32
:10252C0003F3D31A1B013233154AA2FB03235B09B5
:10253C0003F0F0031944FA6813469B0013449A0005
:10254C001A447B685B689B00B2FBF3F20C4BA3FB59
:10255C0002035B09642000FB03F3D31A1B01323323
:10256C00074AA2FB03235B0903F00F027B681B687D
:10257C000A449A6000BF1037BD4680BD0038014048
:10258C001F85EB51014B1868704700BF0C000020F1
:10259C0070B500260C4D0D4C641BA410A64209D13D
:1025AC0000F082FF00260A4D0A4C641BA410A642C0
:1025BC0005D170BD55F8043B98470136EEE755F848
:1025CC00043B98470136F2E7A8350008A835000807
:1025DC00A8350008AC35000803460244934200D1EC
:1025EC00704703F8011BF9E70FB40A4B13B51C68CD
:1025FC0024B1A36913B9204600F066F805AB204658
:10260C00049AA168019300F081F902B0BDE8104072
:10261C0004B070470C000020002310B50446C0E93C
:10262C000033C0E90433836081814366C2818361D6
:10263C00194608225C30FFF7CFFF054B246263621A
:10264C00044BA362044BE362044B236310BD00BF35
:10265C00C52E0008E72E00081F2F0008432F000886
:10266C00014900F0AFB800BF1D32000870B56825F5
:10267C004A1E55430E4605F1740100F0C5F8044698
:10268C0040B10021C0E900160C30A06005F16802D1
:10269C00FFF7A2FF204670BD014800F0B3B800BFA1
:1026AC0024030020014800F0AEB800BF2403002032
:1026BC00014800F0A7B800BF1F030020014800F03C
:1026CC00A2B800BF1F03002010B50446FFF7F0FFAF
:1026DC00A3691BB1BDE81040FFF7F0BFC4E912338A
:1026EC002365134B134A1B68A262A34208BF012344
:1026FC00204608BFA36100F01FF86060204600F080
:10270C001BF8A060204600F017F800220421E060BE
:10271C006068FFF781FF01220921A068FFF77CFFA9
:10272C0002221221E068FFF777FF0123A361D1E7B2
:10273C00103500086D260008F8B50746FFF7ACFF0A
:10274C001E4B1E68B36913B93046FFF7BDFF483600
:10275C00D6E90134013B03D533680BB33668F7E790
:10276C00B4F90C50D5B9164B04F15800E36065660A
:10277C0000F047F8FFF796FF08222946C4E90155F7
:10278C00C4E904552560A56104F15C00FFF724FF42
:10279C00C4E90D55C4E912552046F8BD6834D9E793
:1027AC0004213846FFF762FF044630600028D5D17B
:1027BC00FFF778FF0C233B60EEE700BF10350008F5
:1027CC000100FFFF2DE9F84306468846002700F17B
:1027DC004804D4E90195B9F1010905D52468002C08
:1027EC00F7D13846BDE8F883AB89012B07D9B5F989
:1027FC000E30013303D029463046C04707436835B5
:10280C00E9E7704770477047F8B5CD1C25F0030514
:10281C0008350C2D38BF0C25002D064601DBA942CE
:10282C0003D90C2333600020F8BD00F0B1FD214921
:10283C000A6814469CB9204F3B6823B921463046A0
:10284C0000F02AFB38602946304600F025FB431C7B
:10285C0023D10C233046336000F0A0FDE3E723685E
:10286C005B1B17D40B2B03D923601C44256004E09D
:10287C006368A2420CBF0B605360304600F08EFDC3
:10288C0004F10B00231D20F00700C21ACCD01B1A38
:10289C00A350C9E722466468CCE7C41C24F00304A7
:1028AC00A042E3D0211A304600F0F6FA0130DDD117
:1028BC00CFE700BF980000209C000020936810B464
:1028CC00013B002B936007DA9469A34201DB0A29D0
:1028DC0002D110BC00F034BB1368581C1060197086
:1028EC00084610BC7047F8B506460F461446D51876
:1028FC00AC4201D1002007E03A46304614F8011BE7
:10290C00FFF7DCFF431CF3D1F8BD00002DE9F04FBD
:10291C000D461446984606469DB018B183690BB90E
:10292C00FFF7D2FE894B9D421BD175686B6ED907A0
:10293C0005D4AB899A0502D4A86DFFF763FFAB8968
:10294C001B0701D52B69EBB92946304600F05CFB1F
:10295C00C0B16B6EDC070ED54FF0FF301DB0BDE87B
:10296C00F08F7B4B9D4201D1B568DFE7794B9D42DF
:10297C0008BFF568DAE7AB899805EDD4A86DFFF7C9
:10298C0042FFE9E70023099320238DF829303023F7
:10299C004FF00109CDF80C80DFF8BC818DF82A309E
:1029AC0023469A4613F8012B0AB1252AF9D1BAEB22
:1029BC00040B0BD05B46224629463046FFF793FFAB
:1029CC00013000F0AA80099A5A4409929AF8003012
:1029DC00002B00F0A28000234FF0FF32CDE905233D
:1029EC000AF1010A049307938DF853301A93544655
:1029FC00052214F8011B584800F0BCFC049AD8B905
:102A0C00D10644BF20238DF85330130744BF2B232A
:102A1C008DF853309AF800302A2B15D054460020EC
:102A2C004FF00A0C079A214611F8013B303B092B59
:102A3C004ED9B0B1079214E0A0EB080309FA03F3E6
:102A4C001343A2460493D2E7039B191D1B68039101
:102A5C00002BBBBF5B4242F0020207930793B8BF47
:102A6C00049223782E2B0CD163782A2B35D1039B1F
:102A7C0002341A1D1B680392002BB8BF4FF0FF33B2
:102A8C000593DFF8E4A003225046217800F072FC95
:102A9C0040B14023A0EB0A0003FA00F0049B013480
:102AAC000343049314F8011B06222C488DF82810BC
:102ABC0000F060FC00283FD0294B1BBB039B073365
:102ACC0023F0070308330393099B3B44099367E7FF
:102ADC000C4601200CFB0232A5E700234FF00A0C38
:102AEC00194601340593204610F8012B303A092A77
:102AFC0003D9002BC5D00591C3E7044601230CFB79
:102B0C000121F0E703AB00932A463046154B04A98C
:102B1C00AFF300800746781CD6D16B6ED90705D46D
:102B2C00AB899A0502D4A86DFFF76DFEAB895B06E5
:102B3C003FF512AF099811E703AB00932A463046D4
:102B4C00084B04A900F082F8E4E700BF3435000814
:102B5C005435000814350008743500087E3500081B
:102B6C0000000000F32800087A3500082DE9F04732
:102B7C00164699468A680B6907469342B8BF1346B6
:102B8C00336091F843200C46DDF820800AB1013304
:102B9C0033602368990642BF33680233336025687B
:102BAC0015F0060506D104F1190AE36832689B1A80
:102BBC00AB4228DC94F84320131E226818BF012373
:102BCC0092062DD44946384604F14302C0470130E1
:102BDC0020D02368E56803F00603042B18BF0025FA
:102BEC0032684FF00006A36808BFAD1A226908BF0F
:102BFC0025EAE5759342C4BF9B1AED181A34B54209
:102C0C001AD1002008E00123524649463846C047F5
:102C1C00013003D14FF0FF30BDE8F0870135C4E738
:102C2C003020E11881F843005A1C94F845102244D6
:102C3C00023382F84310C5E7012322464946384641
:102C4C00C0470130E6D00136D9E700002DE9FF4737
:102C5C000C46277E9146782F80469A460C9904F1B3
:102C6C00430207D8622F0AD8002F00F0D980582FC2
:102C7C0000F0A48004F1420684F842703AE0A7F117
:102C8C006303152BF6D801A050F823F0F12C0008A3
:102C9C00052D0008812C0008812C0008812C0008CF
:102CAC00812C0008052D0008812C0008812C0008BF
:102CBC00812C0008812C0008132E0008352D0008EB
:102CCC00F52D0008812C0008812C0008352E0008F9
:102CDC00812C0008352D0008812C0008812C00085F
:102CEC00FD2D00080B6804F142061A1D1B680A60D2
:102CFC0084F842300123A4E0256808682E0600F110
:102D0C0004030AD505680B60002D03DA2D236D42F0
:102D1C0084F843300A235E4819E015F0400F05682B
:102D2C000B6018BF2DB2EFE70B682568181D086003
:102D3C00280601D51D6802E06906FBD51D886F2F9A
:102D4C000CBF08230A235248002184F843106668FC
:102D5C00002EA8BF2168A660A4BF21F00401216049
:102D6C000DB9002E4DD01646B5FBF3F103FB1157F0
:102D7C00C75D06F8017D2F46BB420D46F4D9082BE2
:102D8C000BD12368DF0708D5236961689942DEBF40
:102D9C00302306F8013C06F1FF36921B22614B46AC
:102DAC0021464046CDF800A003AAFFF7DFFE013014
:102DBC004CD14FF0FF3004B0BDE8F087344884F8B4
:102DCC0045700E68236856F8045B1F060E6014D518
:102DDC00D90744BF43F0200323601DB9236823F0B7
:102DEC00200323601023AFE7236843F02003236004
:102DFC007823284884F84530E3E75E0648BFADB237
:102E0C00E6E71646BBE70B6826681D1D60690D607A
:102E1C0035061B6801D5186002E07106FBD51880D9
:102E2C00002316462361BAE70B681A1D0A601E6858
:102E3C0000213046626800F09DFA08B1801B60608A
:102E4C0063682361002384F84330A8E7324649467F
:102E5C0040462369D0470130ABD023689B0713D47D
:102E6C00E068039B9842B8BF1846A4E7012332469A
:102E7C0049464046D04701309BD00135E368039961
:102E8C005B1AAB42F2DCEBE7002504F11906F5E71F
:102E9C00853500089635000838B50023054D0446E5
:102EAC0008462B60FDF77AFD431C02D12B6803B159
:102EBC00236038BD2803002010B50C46B1F90E1064
:102ECC0000F0BEFA0028ABBF636DA3891B1823F476
:102EDC008053ACBF6365A38110BD2DE9F0411F4643
:102EEC008B890546DB050C46164605D502230022C8
:102EFC00B1F90E1000F0C8F9A389324623F48053BF
:102F0C00A38128463B46B4F90E10BDE8F04100F011
:102F1C0069B810B50C46B1F90E1000F0B5F9431CA8
:102F2C00A38915BF606523F4805343F48053A381B8
:102F3C0018BFA38110BDB1F90E1000F0D3B800007A
:102F4C00F8B50E461446054618B183690BB9FFF760
:102F5C00BBFB214B9C422BD16C68A369A360A3895A
:102F6C001A072FD523696BB323692068F6B2C01AF0
:102F7C0063693746834204DC2146284600F048F951
:102F8C0030BBA3680130013BA36023685A1C22604C
:102F9C001E706369834204D0A389DB0706D50A2E11
:102FAC0004D12146284600F033F988B93846F8BDDB
:102FBC000A4B9C4201D1AC68CFE7094B9C4208BF3D
:102FCC00EC68CAE72146284600F01EF80028CBD052
:102FDC004FF0FF37EAE700BF3435000854350008DE
:102FEC001435000838B50446084611460022054D34
:102FFC002A601A46FDF785FC431C02D12B6803B1ED
:10300C00236038BD28030020324B70B51D6806467E
:10301C000C4625B1AB6913B92846FFF755FB2E4B6F
:10302C009C420FD16C68A389B4F90C2019072CD4DD
:10303C00DD0611D40923336042F040034FF0FF301A
:10304C00A3813EE0254B9C4201D1AC68EBE7244BBD
:10305C009C4208BFEC68E6E7580712D5616B41B19A
:10306C0004F14403994202D0304600F09DF900234C
:10307C006363A38923F02403A38100236360236982
:10308C002360A38943F00803A38123694BB9A38967
:10309C0003F42073B3F5007F03D02146304600F0D3
:1030AC0029F9A089B4F90C2010F001030AD00023EF
:1030BC00A36063695B42A361236943B910F080008C
:1030CC00BAD170BD810758BF6369A360F4E70020D3
:1030DC00F7E700BF0C000020343500085435000819
:1030EC001435000838B50023054D044608462B60FE
:1030FC00FDF723FC431C02D12B6803B1236038BDC0
:10310C00280300208A892DE9F041054610070C465A
:10311C0058D44B68002B05DC0B6C002B02DC002018
:10312C00BDE8F081E66A002EF9D0002312F480523B
:10313C002F682B6032D0606DA3895A0705D5636860
:10314C00C01A636B0BB1236CC01A00230246E66AEB
:10315C002846216AB047431CA38906D129681D293A
:10316C002CD82A4ACA40D60728D500226260226988
:10317C00D904226004D5421C01D12B6803B96065C7
:10318C00616B2F600029CAD004F14403994202D02C
:10319C00284600F009F900206063C1E7216A012389
:1031AC002846B047411CC7D12B68002BC4D01D2B1F
:1031BC0001D0162B01D12F60B1E7A38943F0400356
:1031CC00A381ADE70F69002FA9D0930718BF002387
:1031DC000E6808BF4B69A6EB07080F608B60B8F14F
:1031EC00000F9CDD43463A462846216AA66AB04742
:1031FC00002806DCA3894FF0FF3043F04003A38185
:10320C008EE70744A8EB0008E9E700BF0100402067
:10321C0038B50B6905460C4613B90025284638BD50
:10322C0018B183690BB9FFF74FFA144B9C421BD1B1
:10323C006C68B4F90C30002BEFD0626ED00704D45C
:10324C00990502D4A06DFFF7DDFA28462146FFF759
:10325C0059FF636E0546DA07E0D4A3899B05DDD4DC
:10326C00A06DFFF7D0FAD9E7054B9C4201D1AC68B1
:10327C00DFE7044B9C4208BFEC68DAE73435000802
:10328C00543500081435000838B504460846114674
:10329C000022054D2A601A46FDF773FB431C02D130
:1032AC002B6803B1236038BD2803002070B50E468F
:1032BC00B1F90E10144600291D4696B007DA00230A
:1032CC002B60B3891A0610D44FF480630EE06A4663
:1032DC0000F0C8F80028F2DB019A02F47042A2F563
:1032EC0000535A425A412A60EEE7402300202360E3
:1032FC0016B070BD8B8973B59D0706460C4607D575
:10330C0004F14703236023610123636102B070BDA4
:10331C006A4601ABFFF7CAFF009905463046FFF736
:10332C0073FA48B9B4F90C309A05EFD423F00303BF
:10333C0043F00203A381E3E70D4BB362A389206042
:10334C0043F08003A381009B20616361019B5BB10F
:10335C003046B4F90E1000F097F828B1A38923F089
:10336C00030343F00103A381A0890543A581CDE7A5
:10337C006D260008034610B5C9B2024493421846A4
:10338C0001D1002003E0047801338C42F6D110BD4A
:10339C000148FFF737BA00BF200300200148FFF7B0
:1033AC0032BA00BF2003002038B50546002943D0AF
:1033BC0051F8043C0C1F002BB8BFE418FFF7E8FFD2
:1033CC001E4A1368104633B9636014602846BDE882
:1033DC003840FFF7E3BFA3420AD921686218934231
:1033EC0001BF1A685B685218226063600460EDE7E5
:1033FC001A465B680BB1A342FAD911685018A04267
:10340C000BD120680144501883421160DED118683A
:10341C005B68014411605360D8E702D90C232B6020
:10342C00D4E7206821188B4201BF19685B68091822
:10343C00216063605460C9E738BD00BF980000206C
:10344C0038B50446084611460022054D2A601A4636
:10345C00FDF73AFA431C02D12B6803B1236038BD47
:10346C002803002038B50023064D044608461146B3
:10347C002B60FDF76DFA431C02D12B6803B123605E
:10348C0038BD00BF2803002038B50023054D044685
:10349C0008462B60FDF76BFA431C02D12B6803B175
:1034AC00236038BD28030020F8B500BFF8BC08BC69
:1034BC009E467047F8B500BFF8BC08BC9E467047E6
:1034CC005B5461736B20256C755D3A204020256C34
:1034DC0075206D730D0A0000000000000000000054
:1034EC00010203040607080900000000010203049E
:1034FC0002030405060708090A0B0C0D0E0F101029
:10350C00010200001000002000000000000000007C
:10351C00000000000000000000000000000000009F
:10352C00000000000000000000000000000000008F
:10353C00000000000000000000000000000000007F
:10354C00000000000000000000000000000000006F
:10355C00000000000000000000000000000000005F
:10356C000000000000000000232D302B2000686CB0
:10357C004C0065666745464700303132333435368A
:10358C0037383941424344454600303132333435C3
:0C359C00363738396162636465660000F0
:0435A80031010008E5
:0435AC000D01000805
:1035B00000127A001000000001000000100000203E
:1035C00000000000343500085435000814350008A8
:1035D00000000000000000000000000000000000EB
:1035E00000000000000000000000000000000000DB
:1035F00000000000000000000000000000000000CB
:1036000000000000000000000000000000000000BA
:1036100000000000000000000000000000000000AA
:0400000508000AF1F4
:00000001FF
